{
  "abi": [
    {
      "type": "function",
      "name": "addPerson",
      "inputs": [
        {
          "name": "_personFavoriteNumber",
          "type": "uint256",
          "internalType": "uint256"
        },
        {
          "name": "_personName",
          "type": "string",
          "internalType": "string"
        }
      ],
      "outputs": [],
      "stateMutability": "nonpayable"
    },
    {
      "type": "function",
      "name": "favoriteNumber",
      "inputs": [],
      "outputs": [
        {
          "name": "",
          "type": "uint256",
          "internalType": "uint256"
        }
      ],
      "stateMutability": "view"
    },
    {
      "type": "function",
      "name": "listOfPeople",
      "inputs": [
        {
          "name": "",
          "type": "uint256",
          "internalType": "uint256"
        }
      ],
      "outputs": [
        {
          "name": "personFavoriteNumber",
          "type": "uint256",
          "internalType": "uint256"
        },
        {
          "name": "personName",
          "type": "string",
          "internalType": "string"
        }
      ],
      "stateMutability": "view"
    },
    {
      "type": "function",
      "name": "retrieve",
      "inputs": [],
      "outputs": [
        {
          "name": "",
          "type": "uint256",
          "internalType": "uint256"
        }
      ],
      "stateMutability": "view"
    },
    {
      "type": "function",
      "name": "store",
      "inputs": [
        {
          "name": "_favoriteNumber",
          "type": "uint256",
          "internalType": "uint256"
        }
      ],
      "outputs": [],
      "stateMutability": "nonpayable"
    }
  ],
  "bytecode": {
    "object": "0x608060405234801561001057600080fd5b506104c7806100206000396000f3fe608060405234801561001057600080fd5b50600436106100575760003560e01c80632e64cec11461005c5780632ebce63114610073578063471f7cdf146100945780636057361d1461009d578063bc832d4e146100b2575b600080fd5b6000545b6040519081526020015b60405180910390f35b610086610081366004610205565b6100c5565b60405161006a92919061021e565b61006060005481565b6100b06100ab366004610205565b600055565b005b6100b06100c036600461028b565b61017d565b600181815481106100d557600080fd5b600091825260209091206002909102018054600182018054919350906100fa90610346565b80601f016020809104026020016040519081016040528092919081815260200182805461012690610346565b80156101735780601f1061014857610100808354040283529160200191610173565b820191906000526020600020905b81548152906001019060200180831161015657829003601f168201915b5050505050905082565b6040805180820190915282815260208101828152600180548082018255600091909152825160029091027fb10e2d527612073b26eecdfd717e6a320cf44b4afac2b0732d9fcbe2b7fa0cf68101918255915190917fb10e2d527612073b26eecdfd717e6a320cf44b4afac2b0732d9fcbe2b7fa0cf701906101fe90826103d1565b5050505050565b60006020828403121561021757600080fd5b5035919050565b8281526000602060406020840152835180604085015260005b8181101561025357858101830151858201606001528201610237565b506000606082860101526060601f19601f830116850101925050509392505050565b634e487b7160e01b600052604160045260246000fd5b6000806040838503121561029e57600080fd5b82359150602083013567ffffffffffffffff808211156102bd57600080fd5b818501915085601f8301126102d157600080fd5b8135818111156102e3576102e3610275565b604051601f8201601f19908116603f0116810190838211818310171561030b5761030b610275565b8160405282815288602084870101111561032457600080fd5b8260208601602083013760006020848301015280955050505050509250929050565b600181811c9082168061035a57607f821691505b60208210810361037a57634e487b7160e01b600052602260045260246000fd5b50919050565b601f8211156103cc576000816000526020600020601f850160051c810160208610156103a95750805b601f850160051c820191505b818110156103c8578281556001016103b5565b5050505b505050565b815167ffffffffffffffff8111156103eb576103eb610275565b6103ff816103f98454610346565b84610380565b602080601f831160018114610434576000841561041c5750858301515b600019600386901b1c1916600185901b1785556103c8565b600085815260208120601f198616915b8281101561046357888601518255948401946001909101908401610444565b50858210156104815787850151600019600388901b60f8161c191681555b5050505050600190811b0190555056fea2646970667358221220b728fb5bbd1d1f83704b57965c37a2b13c1ed09873b3dfbf6be6d5adbf604e4664736f6c63430008180033",
    "linkReferences": {}
  },
  "methodIdentifiers": {
    "addPerson(uint256,string)": "bc832d4e",
    "favoriteNumber()": "471f7cdf",
    "listOfPeople(uint256)": "2ebce631",
    "retrieve()": "2e64cec1",
    "store(uint256)": "6057361d"
  },
  "id": 0
}